:060000000A128A1100291A
:10000800F000030EF1000B191F210C1850218C1859
:0C0018006121710E8300F00E700E0900D3
:100200001021692170217D218D219B2103138312EF
:10021000A501A401A201A6014921332140210C29F5
:1002200003178316880189010313831605108701BC
:1002300088010313831285018701880108000313D5
:100240008312FA3081000B1126210800880123183F
:100250002E292708870088142314080028088700FF
:10026000081423100800A501A4012208A6000A30E2
:10027000A602A50A03183729A5030A30A607080015
:100280000130A602A40A03184029A4030130A607DE
:10029000080024080022A70025080022A800080062
:1002A000031383120B308F00DC308E000C10A10A78
:1002B000A11C0800A101A20A2208643C0319A201A2
:1002C00008008C10A00AA019A01C0800A001850A33
:1002D0000800031383160F140F178F160F12080050
:1002E0000313831681128111011581140114031364
:1002F0008312FA3081000B1108000313831290104F
:1003000090119016101610131014031383120B3053
:100310008F00DC308E000C10080003138316F030C1
:1003200092000313831292141214121792161212CF
:10033000921112150800031383160C140313831271
:0C0340008B170B178B160B110C1008000C
:100400008A018A140F3982073F3406345B344F3433
:1004100066346D347D3407347F346F3477347C3404
:0804200039345E347934713483
:04400E00D420FF3F7C
:00000001FF
