:060000000A128A1100291A
:10000800F000030EF1000B191A210C183D218C1871
:0C0018004A21710E8300F00E700E0900EA
:100200000B21522159216621762184210313831267
:100210002E2136210829031783168801890103132B
:100220008316051087018801031383128501870156
:100230008801080003138312FA3081000B11212179
:10024000080088012318292924088700881423140A
:100250000800250887000814231008000F30220525
:10026000A600F0302205A700A70E080026080022ED
:10027000A40027080022A5000800031383120B30F6
:100280008F00DC308E000C10A10AA11C0800A10117
:10029000A20A08008C10A00AA019A01C0800A00146
:1002A000850A0800031383160F140F178F160F12F9
:1002B00008000313831681128111011581140114A2
:1002C00003138312FA3081000B1108000313831209
:1002D000901090119016101610131014031383121F
:1002E0000B308F00DC308E000C10080003138316D7
:1002F000F030920003138312921412141217921604
:100300001212921112150800031383160C14031312
:0E03100083128B170B178B160B110C100800A5
:100400008A018A140F3982073F3406345B344F3433
:1004100066346D347D3407347F346F3477347C3404
:0804200039345E347934713483
:04400E00C430FF3F7C
:00000001FF
